:1000000012C0FEC173C27CC28AC228C044C452C49A
:100010005CC4FBC223C022C021C020C07DC41EC05E
:100020001DC01CC01BC011241FBECFE5D4E0DEBF25
:10003000CDBF11E0A0E6B0E0EAE7F9E002C005902C
:100040000D92AE34B107D9F711E0AEE4B1E001C0D2
:100050001D92A736B107E1F76DD18DC4D1CFDF93E3
:10006000CF9300D0CDB7DEB78A838A8180958A830B
:10007000C59819828981883090F48A81880F8A8393
:100080000FB600FE03C0C39AC19802C0C398C198BE
:10009000C19A89818F5F89838981883070F3C59A7D
:1000A0000F900F90CF91DF910895DF93CF930F9230
:1000B000CDB7DEB719828981823030F489818F5FB4
:1000C000898389818230D0F30F90CF91DF91089599
:1000D0008998EBDF8898E9DF0895889AE6DF899AA6
:1000E000E4DF08950F931F93DF93CF930F92CDB763
:1000F000DEB710924E0110924F01198288988981C3
:100100008430C0F40EE411E08998CFDF809905C0F7
:10011000F8018081880F808305C0F8018081880FF5
:100120008F5F808389818F5F8983899ABEDF898110
:10013000843050F3198289818430C0F40FE411E0D7
:100140008998B3DF809905C0F8018081880F80838A
:1001500005C0F8018081880F8F5F808389818F5F60
:100160008983899AA2DF8981843050F30F90CF91DF
:10017000DF911F910F910895DF93CF9300D0CDB7FA
:10018000DEB78A83198289818830B8F41FBE8A81DC
:10019000880F8A830FB600FE04C08898899885DF8F
:1001A00003C0889A899881DF899A889A7EDF89813D
:1001B0008F5F89838981883048F3899876DF899AAF
:1001C0000F900F90CF91DF91089587DF80EDD4DFFE
:1001D00087E0D2DF80E1D0DF7BDF0895889A8998BD
:1001E00064DF899A62DF0895899888985EDF81B319
:1001F000836081BB5ADF089582B38C7F82BB6DDF41
:1002000080EDBADF80E0B8DF63DF67DF81EDB4DF68
:1002100069DF80914E018093590180914F01809355
:100220005801DCDF5FDF80914F0180936201809194
:100230004E0180936301D2DF55DF80914E018093A0
:10024000600180914F0180935F01C8DF4BDF809197
:100250004E018093570180914F0180935601BEDF7C
:1002600041DF80914E018093550180914F01809331
:100270005401B4DF37DF80914E0180935D0180919E
:100280004F0180935C01B0DF23DF0895EF920F935D
:10029000DF93CF9300D000D000D0CDB7DEB78983F5
:1002A0006A834B832C830D83EE8217DF80ED64DF3E
:1002B00080E062DF898160DF8A815EDF8B815CDFC5
:1002C0008C815ADF8D8158DF8E8156DF01DF05DF9B
:1002D00080ED52DF80E050DFFBDEFFDE81ED4CDFA2
:1002E00001DF82DFF5DE88DF26960FB6F894DEBFE9
:1002F0000FBECDBFCF91DF910F91EF900895DF93A7
:10030000CF9300D0CDB7DEB71A82198289819A8146
:100310008F3F910550F489819A8101969A83898350
:1003200089819A818F3F9105B0F30F900F90CF9103
:10033000DF910895CF93DF938FE287BB80E288BB84
:10034000DEDF80EF81BB12BAC09ABF9A85E083BF1F
:1003500012BE89B7816089BF82E08FBD8BE18EBDFF
:100360008FEF9FEF97BD86BD88E898E09BBD8ABD63
:10037000CBEFD4E0D7BDC6BD89B78C6189BF8AE019
:1003800085BF80EC8BBF8CE485BD87E283BD89B7D8
:10039000806C89BF84B3836084BB85B3836085BB75
:1003A00014DF9BDE80EDE8DE80E0E6DE80E0E4DE68
:1003B0008FDE10926601D0935B01C0935A011CDF5F
:1003C0007894FECFE199FECF9FBB8EBB6DBBE29AC6
:1003D000E19A0895E199FECF8EE490E09FBB8EBB39
:1003E000E09A8DB380935201E199FECF8AE490E0C8
:1003F0009FBB8EBBE09A8DB3809353018DB308955C
:100400001F920F920FB60F9211242F933F934F9389
:100410005F936F937F938F939F93AF93BF93EF936C
:10042000FF93809158018F5F809358018A3008F4C0
:100430004CC0109258018091660181FF06C08091E6
:1004400066018D7F8093660105C0809166018260A0
:1004500080936601809159018F5F809359018630A6
:10046000A0F110925901809162018F5F8093620127
:100470008A3058F110926201809163018F5F8093FE
:100480006301863010F11092630180915F018F5FEC
:1004900080935F018A3038F010925F018091600193
:1004A0008F5F80936001909160018AE0989FC00106
:1004B000112420915F01820F911D883191052CF04C
:1004C00010925F011092600197DEFF91EF91BF9152
:1004D000AF919F918F917F916F915F914F913F91DC
:1004E0002F910F900FBE0F901F9018951F920F9293
:1004F0000FB60F9211240F900FBE0F901F901895FA
:100500001F920F920FB60F9211248F9378948FEF52
:1005100082BB8F910F900FBE0F901F9018951F9266
:100520000F920FB60F9211242F933F934F935F9327
:100530006F937F938F939F93AF93BF93EF93FF93AB
:10054000789480E08CDD809164019091650120E1D8
:1005500030E0A90102C0440F551F8A95E2F7CA0195
:10056000809582BB809164019091650130B321E058
:100570008230910509F020E02223A1F081E032FFD2
:1005800080E0882379F0E0916401F0916501E75BF8
:10059000FE4F8081ECE3F1E0E80FF11D8081806285
:1005A0005EDD0DC0E0916401F0916501E75BFE4FF7
:1005B0008081ECE3F1E0E80FF11D808150DD809156
:1005C00064019091650101969093650180936401A7
:1005D00080916401909165018430910524F010921E
:1005E0006501109264017894FF91EF91BF91AF91F2
:1005F0009F918F917F916F915F914F913F912F913B
:100600000F900FBE0F901F9018951F920F920FB66C
:100610000F9211242F933F934F935F936F937F9388
:100620008F939F93EF93FF93DF93CF930F92CDB769
:10063000DEB778948FEC86B98091660181FF11C096
:1006400080916201809349018091630180934A0106
:1006500080915F0180934B018091600180934C01F8
:100660004BC019828981E0E6F0E0E80FF11D90812E
:1006700060915E01298181E0691708F480E0882398
:10068000F9F081E02F3608F080E08823C9F080E699
:1006900090E031E070E029812F5F29832981FC01FE
:1006A000E20FF11D40815981232F641708F4272F91
:1006B000222331F0232F5F3608F0272F222359F70A
:1006C0008981EEECF0E0E80FF11D808189838BE0F9
:1006D00080934A01EAE4F1E02AE022938981622FC3
:1006E0003ED18383898139813AD1880F982F990F20
:1006F000990F890F381B32838091660190E08D7FBE
:100700008830910509F4A7C0893091053CF4009721
:1007100069F08130910509F0ACC040C0803191058D
:1007200019F18032910509F0A4C073C089B78F7E9A
:1007300089BF89B7877F89BF909160018AE0989FC0
:10074000C001112420915F01820F911D8830910515
:100750000CF48FC089B7806189BF80916601827077
:10076000805F8093660185C080915A0190915B0102
:10077000019790935B0180935A0189B7806189BF8B
:1007800080915A0190915B01009709F072C08091AD
:10079000660182708F5F809366016BC080916101FA
:1007A00090E09C01220F331F220F331F820F931FF3
:1007B000909581959F4F85509B4F9BBD8ABD909191
:1007C00060018AE0989FC001112420915F01820F8F
:1007D000911D21E08531910509F020E0222309F4E3
:1007E00048C0909163018AE0989FC0011124209134
:1007F0006201820F911D21E08C30910509F020E00B
:100800002223B9F1809166018270805E8093660137
:1008100030C080915A0190915B01019690935B01E9
:1008200080935A0180915A0190915B0124E08B3FA3
:100830009207F9F4809166018270885F8093660167
:1008400089B78F7E89BF89B7886089BF8BEF94E0B5
:1008500099BD88BD0EC02091600180915F0190E03C
:10086000820F911D009729F4809166018270809318
:1008700066010F90CF91DF91FF91EF919F918F9142
:100880007F916F915F914F913F912F910F900FBE8C
:100890000F901F9018951F920F920FB60F92112470
:1008A0008F9385B3836085BB8F910F900FBE0F90A0
:1008B0001F9018951F920F920FB60F921124A89AAD
:1008C0000F900FBE0F901F9018951F920F920FB6AA
:1008D0000F9211242F938F939F93909166012091F3
:1008E000660181E094FF80E0882329F481E025FF00
:1008F00080E0882331F080915A0190915B019BBD8B
:100900008ABD85B38C7F85BB9F918F912F910F906E
:100910000FBE0F901F9018951F920F920FB60F9257
:1009200011248F93DF93CF930F92CDB7DEB785B1AC
:100930008983389B06C0898180935E0182E687B9EE
:1009400005C083E687B98981809361010F90CF91BB
:10095000DF918F910F900FBE0F901F901895991BEC
:1009600079E004C0991F961708F0961B881F7A95A6
:0A097000C9F780950895F894FFCFB1
:10097A004345474A4C4E505355575A5A5B5D5F613F
:10098A0064676B6E7174787B7E818386898B8E90A7
:10099A00939597999C9EA0A2A4A6A8AAACAEB0B221
:1009AA00B4B6B8BABCBEBFC1C3C5C7C8CACBCCCD22
:1009BA00CED0D1D2D3D5D6D7D8DADBDCDDDEDFE0B4
:1009CA00E0E1E2E3E3E4E5E6E6E7E8E8E9EAEAEBC0
:1009DA00ECECEDEE00000000000000000000000159
:1009EA0002030405060708090A0B0C0D0E0F101165
:1009FA0012131415161718191A1B1C1D1E1F202155
:100A0A0022232425262728292A2B2C2D2E2F303144
:100A1A0032333435363738393A3B3C3D3E3F404134
:100A2A0042434445464748494A4B4C4D4E4F505124
:100A3A0052535455565758595A5B5C5D5E5F606114
:100A4A00626300000000000000000000D714CD5DC2
:0E0A5A001E5BDB17DF5FC30F00070500010006
:00000001FF
